{
  "contractName": "RentableNft",
  "abi": [
    {
      "inputs": [],
      "stateMutability": "nonpayable",
      "type": "constructor"
    },
    {
      "anonymous": false,
      "inputs": [
        {
          "indexed": true,
          "internalType": "address",
          "name": "owner",
          "type": "address"
        },
        {
          "indexed": true,
          "internalType": "address",
          "name": "approved",
          "type": "address"
        },
        {
          "indexed": true,
          "internalType": "uint256",
          "name": "tokenId",
          "type": "uint256"
        }
      ],
      "name": "Approval",
      "type": "event"
    },
    {
      "anonymous": false,
      "inputs": [
        {
          "indexed": true,
          "internalType": "address",
          "name": "owner",
          "type": "address"
        },
        {
          "indexed": true,
          "internalType": "address",
          "name": "operator",
          "type": "address"
        },
        {
          "indexed": false,
          "internalType": "bool",
          "name": "approved",
          "type": "bool"
        }
      ],
      "name": "ApprovalForAll",
      "type": "event"
    },
    {
      "anonymous": false,
      "inputs": [
        {
          "indexed": true,
          "internalType": "address",
          "name": "from",
          "type": "address"
        },
        {
          "indexed": true,
          "internalType": "address",
          "name": "to",
          "type": "address"
        },
        {
          "indexed": true,
          "internalType": "uint256",
          "name": "tokenId",
          "type": "uint256"
        }
      ],
      "name": "Transfer",
      "type": "event"
    },
    {
      "anonymous": false,
      "inputs": [
        {
          "indexed": true,
          "internalType": "uint256",
          "name": "tokenId",
          "type": "uint256"
        },
        {
          "indexed": true,
          "internalType": "address",
          "name": "user",
          "type": "address"
        },
        {
          "indexed": false,
          "internalType": "uint64",
          "name": "expires",
          "type": "uint64"
        }
      ],
      "name": "UpdateUser",
      "type": "event"
    },
    {
      "inputs": [
        {
          "internalType": "address",
          "name": "to",
          "type": "address"
        },
        {
          "internalType": "uint256",
          "name": "tokenId",
          "type": "uint256"
        }
      ],
      "name": "approve",
      "outputs": [],
      "stateMutability": "nonpayable",
      "type": "function"
    },
    {
      "inputs": [
        {
          "internalType": "address",
          "name": "owner",
          "type": "address"
        }
      ],
      "name": "balanceOf",
      "outputs": [
        {
          "internalType": "uint256",
          "name": "",
          "type": "uint256"
        }
      ],
      "stateMutability": "view",
      "type": "function",
      "constant": true
    },
    {
      "inputs": [
        {
          "internalType": "uint256",
          "name": "tokenId",
          "type": "uint256"
        }
      ],
      "name": "getApproved",
      "outputs": [
        {
          "internalType": "address",
          "name": "",
          "type": "address"
        }
      ],
      "stateMutability": "view",
      "type": "function",
      "constant": true
    },
    {
      "inputs": [
        {
          "internalType": "address",
          "name": "owner",
          "type": "address"
        },
        {
          "internalType": "address",
          "name": "operator",
          "type": "address"
        }
      ],
      "name": "isApprovedForAll",
      "outputs": [
        {
          "internalType": "bool",
          "name": "",
          "type": "bool"
        }
      ],
      "stateMutability": "view",
      "type": "function",
      "constant": true
    },
    {
      "inputs": [],
      "name": "name",
      "outputs": [
        {
          "internalType": "string",
          "name": "",
          "type": "string"
        }
      ],
      "stateMutability": "view",
      "type": "function",
      "constant": true
    },
    {
      "inputs": [
        {
          "internalType": "uint256",
          "name": "tokenId",
          "type": "uint256"
        }
      ],
      "name": "ownerOf",
      "outputs": [
        {
          "internalType": "address",
          "name": "",
          "type": "address"
        }
      ],
      "stateMutability": "view",
      "type": "function",
      "constant": true
    },
    {
      "inputs": [
        {
          "internalType": "address",
          "name": "from",
          "type": "address"
        },
        {
          "internalType": "address",
          "name": "to",
          "type": "address"
        },
        {
          "internalType": "uint256",
          "name": "tokenId",
          "type": "uint256"
        }
      ],
      "name": "safeTransferFrom",
      "outputs": [],
      "stateMutability": "nonpayable",
      "type": "function"
    },
    {
      "inputs": [
        {
          "internalType": "address",
          "name": "from",
          "type": "address"
        },
        {
          "internalType": "address",
          "name": "to",
          "type": "address"
        },
        {
          "internalType": "uint256",
          "name": "tokenId",
          "type": "uint256"
        },
        {
          "internalType": "bytes",
          "name": "data",
          "type": "bytes"
        }
      ],
      "name": "safeTransferFrom",
      "outputs": [],
      "stateMutability": "nonpayable",
      "type": "function"
    },
    {
      "inputs": [
        {
          "internalType": "address",
          "name": "operator",
          "type": "address"
        },
        {
          "internalType": "bool",
          "name": "approved",
          "type": "bool"
        }
      ],
      "name": "setApprovalForAll",
      "outputs": [],
      "stateMutability": "nonpayable",
      "type": "function"
    },
    {
      "inputs": [
        {
          "internalType": "uint256",
          "name": "tokenId",
          "type": "uint256"
        },
        {
          "internalType": "address",
          "name": "user",
          "type": "address"
        },
        {
          "internalType": "uint64",
          "name": "expires",
          "type": "uint64"
        }
      ],
      "name": "setUser",
      "outputs": [],
      "stateMutability": "nonpayable",
      "type": "function"
    },
    {
      "inputs": [
        {
          "internalType": "bytes4",
          "name": "interfaceId",
          "type": "bytes4"
        }
      ],
      "name": "supportsInterface",
      "outputs": [
        {
          "internalType": "bool",
          "name": "",
          "type": "bool"
        }
      ],
      "stateMutability": "view",
      "type": "function",
      "constant": true
    },
    {
      "inputs": [],
      "name": "symbol",
      "outputs": [
        {
          "internalType": "string",
          "name": "",
          "type": "string"
        }
      ],
      "stateMutability": "view",
      "type": "function",
      "constant": true
    },
    {
      "inputs": [
        {
          "internalType": "uint256",
          "name": "tokenId",
          "type": "uint256"
        }
      ],
      "name": "tokenURI",
      "outputs": [
        {
          "internalType": "string",
          "name": "",
          "type": "string"
        }
      ],
      "stateMutability": "view",
      "type": "function",
      "constant": true
    },
    {
      "inputs": [
        {
          "internalType": "address",
          "name": "from",
          "type": "address"
        },
        {
          "internalType": "address",
          "name": "to",
          "type": "address"
        },
        {
          "internalType": "uint256",
          "name": "tokenId",
          "type": "uint256"
        }
      ],
      "name": "transferFrom",
      "outputs": [],
      "stateMutability": "nonpayable",
      "type": "function"
    },
    {
      "inputs": [
        {
          "internalType": "uint256",
          "name": "tokenId",
          "type": "uint256"
        }
      ],
      "name": "userExpires",
      "outputs": [
        {
          "internalType": "uint256",
          "name": "",
          "type": "uint256"
        }
      ],
      "stateMutability": "view",
      "type": "function",
      "constant": true
    },
    {
      "inputs": [
        {
          "internalType": "uint256",
          "name": "tokenId",
          "type": "uint256"
        }
      ],
      "name": "userOf",
      "outputs": [
        {
          "internalType": "address",
          "name": "",
          "type": "address"
        }
      ],
      "stateMutability": "view",
      "type": "function",
      "constant": true
    },
    {
      "inputs": [
        {
          "internalType": "string",
          "name": "_tokenURI",
          "type": "string"
        }
      ],
      "name": "mint",
      "outputs": [],
      "stateMutability": "nonpayable",
      "type": "function"
    },
    {
      "inputs": [
        {
          "internalType": "uint256",
          "name": "tokenId",
          "type": "uint256"
        }
      ],
      "name": "burn",
      "outputs": [],
      "stateMutability": "nonpayable",
      "type": "function"
    }
  ],
  "bytecode": "0x60806040523480156200001157600080fd5b506040518060400160405280600b81526020017f52656e7461626c654e66740000000000000000000000000000000000000000008152506040518060400160405280600281526020017f524e0000000000000000000000000000000000000000000000000000000000008152508181816000908162000091919062000328565b508060019081620000a3919062000328565b50505050506200040f565b600081519050919050565b7f4e487b7100000000000000000000000000000000000000000000000000000000600052604160045260246000fd5b7f4e487b7100000000000000000000000000000000000000000000000000000000600052602260045260246000fd5b600060028204905060018216806200013057607f821691505b602082108103620001465762000145620000e8565b5b50919050565b60008190508160005260206000209050919050565b60006020601f8301049050919050565b600082821b905092915050565b600060088302620001b07fffffffffffffffffffffffffffffffffffffffffffffffffffffffffffffffff8262000171565b620001bc868362000171565b95508019841693508086168417925050509392505050565b6000819050919050565b6000819050919050565b60006200020962000203620001fd84620001d4565b620001de565b620001d4565b9050919050565b6000819050919050565b6200022583620001e8565b6200023d620002348262000210565b8484546200017e565b825550505050565b600090565b6200025462000245565b620002618184846200021a565b505050565b5b8181101562000289576200027d6000826200024a565b60018101905062000267565b5050565b601f821115620002d857620002a2816200014c565b620002ad8462000161565b81016020851015620002bd578190505b620002d5620002cc8562000161565b83018262000266565b50505b505050565b600082821c905092915050565b6000620002fd60001984600802620002dd565b1980831691505092915050565b6000620003188383620002ea565b9150826002028217905092915050565b6200033382620000ae565b67ffffffffffffffff8111156200034f576200034e620000b9565b5b6200035b825462000117565b620003688282856200028d565b600060209050601f831160018114620003a057600084156200038b578287015190505b6200039785826200030a565b86555062000407565b601f198416620003b0866200014c565b60005b82811015620003da57848901518255600182019150602085019450602081019050620003b3565b86831015620003fa5784890151620003f6601f891682620002ea565b8355505b6001600288020188555050505b505050505050565b61344e806200041f6000396000f3fe608060405234801561001057600080fd5b50600436106101165760003560e01c80638fc88c48116100a2578063c2f1f14a11610071578063c2f1f14a146102ef578063c87b56dd1461031f578063d85d3d271461034f578063e030565e1461036b578063e985e9c51461038757610116565b80638fc88c481461026957806395d89b4114610299578063a22cb465146102b7578063b88d4fde146102d357610116565b806323b872dd116100e957806323b872dd146101b557806342842e0e146101d157806342966c68146101ed5780636352211e1461020957806370a082311461023957610116565b806301ffc9a71461011b57806306fdde031461014b578063081812fc14610169578063095ea7b314610199575b600080fd5b610135600480360381019061013091906120d3565b6103b7565b604051610142919061211b565b60405180910390f35b610153610431565b60405161016091906121c6565b60405180910390f35b610183600480360381019061017e919061221e565b6104c3565b604051610190919061228c565b60405180910390f35b6101b360048036038101906101ae91906122d3565b610509565b005b6101cf60048036038101906101ca9190612313565b610620565b005b6101eb60048036038101906101e69190612313565b610680565b005b6102076004803603810190610202919061221e565b6106a0565b005b610223600480360381019061021e919061221e565b6106ac565b604051610230919061228c565b60405180910390f35b610253600480360381019061024e9190612366565b610732565b60405161026091906123a2565b60405180910390f35b610283600480360381019061027e919061221e565b6107e9565b60405161029091906123a2565b60405180910390f35b6102a1610827565b6040516102ae91906121c6565b60405180910390f35b6102d160048036038101906102cc91906123e9565b6108b9565b005b6102ed60048036038101906102e8919061255e565b6108cf565b005b6103096004803603810190610304919061221e565b610931565b604051610316919061228c565b60405180910390f35b6103396004803603810190610334919061221e565b6109b6565b60405161034691906121c6565b60405180910390f35b61036960048036038101906103649190612682565b610ac8565b005b6103856004803603810190610380919061270b565b610af8565b005b6103a1600480360381019061039c919061275e565b610ccc565b6040516103ae919061211b565b60405180910390f35b60007fad092b5c000000000000000000000000000000000000000000000000000000007bffffffffffffffffffffffffffffffffffffffffffffffffffffffff1916827bffffffffffffffffffffffffffffffffffffffffffffffffffffffff1916148061042a575061042982610d60565b5b9050919050565b606060008054610440906127cd565b80601f016020809104026020016040519081016040528092919081815260200182805461046c906127cd565b80156104b95780601f1061048e576101008083540402835291602001916104b9565b820191906000526020600020905b81548152906001019060200180831161049c57829003601f168201915b5050505050905090565b60006104ce82610e42565b6004600083815260200190815260200160002060009054906101000a900473ffffffffffffffffffffffffffffffffffffffff169050919050565b6000610514826106ac565b90508073ffffffffffffffffffffffffffffffffffffffff168373ffffffffffffffffffffffffffffffffffffffff1603610584576040517f08c379a000000000000000000000000000000000000000000000000000000000815260040161057b90612870565b60405180910390fd5b8073ffffffffffffffffffffffffffffffffffffffff166105a3610e8d565b73ffffffffffffffffffffffffffffffffffffffff1614806105d257506105d1816105cc610e8d565b610ccc565b5b610611576040517f08c379a000000000000000000000000000000000000000000000000000000000815260040161060890612902565b60405180910390fd5b61061b8383610e95565b505050565b61063161062b610e8d565b82610f4e565b610670576040517f08c379a000000000000000000000000000000000000000000000000000000000815260040161066790612994565b60405180910390fd5b61067b838383610fe3565b505050565b61069b838383604051806020016040528060008152506108cf565b505050565b6106a9816112dc565b50565b6000806106b88361132f565b9050600073ffffffffffffffffffffffffffffffffffffffff168173ffffffffffffffffffffffffffffffffffffffff1603610729576040517f08c379a000000000000000000000000000000000000000000000000000000000815260040161072090612a00565b60405180910390fd5b80915050919050565b60008073ffffffffffffffffffffffffffffffffffffffff168273ffffffffffffffffffffffffffffffffffffffff16036107a2576040517f08c379a000000000000000000000000000000000000000000000000000000000815260040161079990612a92565b60405180910390fd5b600360008373ffffffffffffffffffffffffffffffffffffffff1673ffffffffffffffffffffffffffffffffffffffff168152602001908152602001600020549050919050565b60006007600083815260200190815260200160002060000160149054906101000a900467ffffffffffffffff1667ffffffffffffffff169050919050565b606060018054610836906127cd565b80601f0160208091040260200160405190810160405280929190818152602001828054610862906127cd565b80156108af5780601f10610884576101008083540402835291602001916108af565b820191906000526020600020905b81548152906001019060200180831161089257829003601f168201915b5050505050905090565b6108cb6108c4610e8d565b838361136c565b5050565b6108e06108da610e8d565b83610f4e565b61091f576040517f08c379a000000000000000000000000000000000000000000000000000000000815260040161091690612994565b60405180910390fd5b61092b848484846114d8565b50505050565b6000426007600084815260200190815260200160002060000160149054906101000a900467ffffffffffffffff1667ffffffffffffffff16106109ac576007600083815260200190815260200160002060000160009054906101000a900473ffffffffffffffffffffffffffffffffffffffff1690506109b1565b600090505b919050565b60606109c182610e42565b60006006600084815260200190815260200160002080546109e1906127cd565b80601f0160208091040260200160405190810160405280929190818152602001828054610a0d906127cd565b8015610a5a5780601f10610a2f57610100808354040283529160200191610a5a565b820191906000526020600020905b815481529060010190602001808311610a3d57829003601f168201915b505050505090506000610a6b611534565b90506000815103610a80578192505050610ac3565b600082511115610ab5578082604051602001610a9d929190612aee565b60405160208183030381529060405292505050610ac3565b610abe8461154b565b925050505b919050565b610ad260086115b3565b6000610ade60086115c9565b9050610aea33826115d7565b610af481836115f5565b5050565b610b023384610f4e565b610b41576040517f08c379a0000000000000000000000000000000000000000000000000000000008152600401610b3890612b84565b60405180910390fd5b6000600760008581526020019081526020016000209050428267ffffffffffffffff161015610ba5576040517f08c379a0000000000000000000000000000000000000000000000000000000008152600401610b9c90612bf0565b60405180910390fd5b428160000160149054906101000a900467ffffffffffffffff1667ffffffffffffffff1610610c09576040517f08c379a0000000000000000000000000000000000000000000000000000000008152600401610c0090612c5c565b60405180910390fd5b828160000160006101000a81548173ffffffffffffffffffffffffffffffffffffffff021916908373ffffffffffffffffffffffffffffffffffffffff160217905550818160000160146101000a81548167ffffffffffffffff021916908367ffffffffffffffff1602179055508273ffffffffffffffffffffffffffffffffffffffff16847f4e06b4e7000e659094299b3533b47b6aa8ad048e95e872d23d1f4ee55af89cfe84604051610cbe9190612c8b565b60405180910390a350505050565b6000600560008473ffffffffffffffffffffffffffffffffffffffff1673ffffffffffffffffffffffffffffffffffffffff16815260200190815260200160002060008373ffffffffffffffffffffffffffffffffffffffff1673ffffffffffffffffffffffffffffffffffffffff16815260200190815260200160002060009054906101000a900460ff16905092915050565b60007f80ac58cd000000000000000000000000000000000000000000000000000000007bffffffffffffffffffffffffffffffffffffffffffffffffffffffff1916827bffffffffffffffffffffffffffffffffffffffffffffffffffffffff19161480610e2b57507f5b5e139f000000000000000000000000000000000000000000000000000000007bffffffffffffffffffffffffffffffffffffffffffffffffffffffff1916827bffffffffffffffffffffffffffffffffffffffffffffffffffffffff1916145b80610e3b5750610e3a82611662565b5b9050919050565b610e4b816116cc565b610e8a576040517f08c379a0000000000000000000000000000000000000000000000000000000008152600401610e8190612a00565b60405180910390fd5b50565b600033905090565b816004600083815260200190815260200160002060006101000a81548173ffffffffffffffffffffffffffffffffffffffff021916908373ffffffffffffffffffffffffffffffffffffffff160217905550808273ffffffffffffffffffffffffffffffffffffffff16610f08836106ac565b73ffffffffffffffffffffffffffffffffffffffff167f8c5be1e5ebec7d5bd14f71427d1e84f3dd0314c0f7b2291e5b200ac8c7c3b92560405160405180910390a45050565b600080610f5a836106ac565b90508073ffffffffffffffffffffffffffffffffffffffff168473ffffffffffffffffffffffffffffffffffffffff161480610f9c5750610f9b8185610ccc565b5b80610fda57508373ffffffffffffffffffffffffffffffffffffffff16610fc2846104c3565b73ffffffffffffffffffffffffffffffffffffffff16145b91505092915050565b8273ffffffffffffffffffffffffffffffffffffffff16611003826106ac565b73ffffffffffffffffffffffffffffffffffffffff1614611059576040517f08c379a000000000000000000000000000000000000000000000000000000000815260040161105090612d18565b60405180910390fd5b600073ffffffffffffffffffffffffffffffffffffffff168273ffffffffffffffffffffffffffffffffffffffff16036110c8576040517f08c379a00000000000000000000000000000000000000000000000000000000081526004016110bf90612daa565b60405180910390fd5b6110d5838383600161170d565b8273ffffffffffffffffffffffffffffffffffffffff166110f5826106ac565b73ffffffffffffffffffffffffffffffffffffffff161461114b576040517f08c379a000000000000000000000000000000000000000000000000000000000815260040161114290612d18565b60405180910390fd5b6004600082815260200190815260200160002060006101000a81549073ffffffffffffffffffffffffffffffffffffffff02191690556001600360008573ffffffffffffffffffffffffffffffffffffffff1673ffffffffffffffffffffffffffffffffffffffff168152602001908152602001600020600082825403925050819055506001600360008473ffffffffffffffffffffffffffffffffffffffff1673ffffffffffffffffffffffffffffffffffffffff16815260200190815260200160002060008282540192505081905550816002600083815260200190815260200160002060006101000a81548173ffffffffffffffffffffffffffffffffffffffff021916908373ffffffffffffffffffffffffffffffffffffffff160217905550808273ffffffffffffffffffffffffffffffffffffffff168473ffffffffffffffffffffffffffffffffffffffff167fddf252ad1be2c89b69c2b068fc378daa952ba7f163c4a11628f55a4df523b3ef60405160405180910390a46112d7838383600161186d565b505050565b6112e581611873565b6000600660008381526020019081526020016000208054611305906127cd565b90501461132c5760066000828152602001908152602001600020600061132b919061200a565b5b50565b60006002600083815260200190815260200160002060009054906101000a900473ffffffffffffffffffffffffffffffffffffffff169050919050565b8173ffffffffffffffffffffffffffffffffffffffff168373ffffffffffffffffffffffffffffffffffffffff16036113da576040517f08c379a00000000000000000000000000000000000000000000000000000000081526004016113d190612e16565b60405180910390fd5b80600560008573ffffffffffffffffffffffffffffffffffffffff1673ffffffffffffffffffffffffffffffffffffffff16815260200190815260200160002060008473ffffffffffffffffffffffffffffffffffffffff1673ffffffffffffffffffffffffffffffffffffffff16815260200190815260200160002060006101000a81548160ff0219169083151502179055508173ffffffffffffffffffffffffffffffffffffffff168373ffffffffffffffffffffffffffffffffffffffff167f17307eab39ab6107e8899845ad3d59bd9653f200f220920489ca2b5937696c31836040516114cb919061211b565b60405180910390a3505050565b6114e3848484610fe3565b6114ef848484846119c1565b61152e576040517f08c379a000000000000000000000000000000000000000000000000000000000815260040161152590612ea8565b60405180910390fd5b50505050565b606060405180602001604052806000815250905090565b606061155682610e42565b6000611560611534565b9050600081511161158057604051806020016040528060008152506115ab565b8061158a84611b48565b60405160200161159b929190612aee565b6040516020818303038152906040525b915050919050565b6001816000016000828254019250508190555050565b600081600001549050919050565b6115f1828260405180602001604052806000815250611c16565b5050565b6115fe826116cc565b61163d576040517f08c379a000000000000000000000000000000000000000000000000000000000815260040161163490612f3a565b60405180910390fd5b8060066000848152602001908152602001600020908161165d9190613106565b505050565b60007f01ffc9a7000000000000000000000000000000000000000000000000000000007bffffffffffffffffffffffffffffffffffffffffffffffffffffffff1916827bffffffffffffffffffffffffffffffffffffffffffffffffffffffff1916149050919050565b60008073ffffffffffffffffffffffffffffffffffffffff166116ee8361132f565b73ffffffffffffffffffffffffffffffffffffffff1614159050919050565b61171984848484611c71565b8273ffffffffffffffffffffffffffffffffffffffff168473ffffffffffffffffffffffffffffffffffffffff16141580156117b85750600073ffffffffffffffffffffffffffffffffffffffff166007600084815260200190815260200160002060000160009054906101000a900473ffffffffffffffffffffffffffffffffffffffff1673ffffffffffffffffffffffffffffffffffffffff1614155b156118675760076000838152602001908152602001600020600080820160006101000a81549073ffffffffffffffffffffffffffffffffffffffff02191690556000820160146101000a81549067ffffffffffffffff02191690555050600073ffffffffffffffffffffffffffffffffffffffff16827f4e06b4e7000e659094299b3533b47b6aa8ad048e95e872d23d1f4ee55af89cfe600060405161185e9190613213565b60405180910390a35b50505050565b50505050565b600061187e826106ac565b905061188e81600084600161170d565b611897826106ac565b90506004600083815260200190815260200160002060006101000a81549073ffffffffffffffffffffffffffffffffffffffff02191690556001600360008373ffffffffffffffffffffffffffffffffffffffff1673ffffffffffffffffffffffffffffffffffffffff168152602001908152602001600020600082825403925050819055506002600083815260200190815260200160002060006101000a81549073ffffffffffffffffffffffffffffffffffffffff021916905581600073ffffffffffffffffffffffffffffffffffffffff168273ffffffffffffffffffffffffffffffffffffffff167fddf252ad1be2c89b69c2b068fc378daa952ba7f163c4a11628f55a4df523b3ef60405160405180910390a46119bd81600084600161186d565b5050565b60006119e28473ffffffffffffffffffffffffffffffffffffffff16611c77565b15611b3b578373ffffffffffffffffffffffffffffffffffffffff1663150b7a02611a0b610e8d565b8786866040518563ffffffff1660e01b8152600401611a2d9493929190613283565b6020604051808303816000875af1925050508015611a6957506040513d601f19601f82011682018060405250810190611a6691906132e4565b60015b611aeb573d8060008114611a99576040519150601f19603f3d011682016040523d82523d6000602084013e611a9e565b606091505b506000815103611ae3576040517f08c379a0000000000000000000000000000000000000000000000000000000008152600401611ada90612ea8565b60405180910390fd5b805181602001fd5b63150b7a0260e01b7bffffffffffffffffffffffffffffffffffffffffffffffffffffffff1916817bffffffffffffffffffffffffffffffffffffffffffffffffffffffff191614915050611b40565b600190505b949350505050565b606060006001611b5784611c9a565b01905060008167ffffffffffffffff811115611b7657611b75612433565b5b6040519080825280601f01601f191660200182016040528015611ba85781602001600182028036833780820191505090505b509050600082602001820190505b600115611c0b578080600190039150507f3031323334353637383961626364656600000000000000000000000000000000600a86061a8153600a8581611bff57611bfe613311565b5b04945060008503611bb6575b819350505050919050565b611c208383611ded565b611c2d60008484846119c1565b611c6c576040517f08c379a0000000000000000000000000000000000000000000000000000000008152600401611c6390612ea8565b60405180910390fd5b505050565b50505050565b6000808273ffffffffffffffffffffffffffffffffffffffff163b119050919050565b600080600090507a184f03e93ff9f4daa797ed6e38ed64bf6a1f0100000000000000008310611cf8577a184f03e93ff9f4daa797ed6e38ed64bf6a1f0100000000000000008381611cee57611ced613311565b5b0492506040810190505b6d04ee2d6d415b85acef81000000008310611d35576d04ee2d6d415b85acef81000000008381611d2b57611d2a613311565b5b0492506020810190505b662386f26fc100008310611d6457662386f26fc100008381611d5a57611d59613311565b5b0492506010810190505b6305f5e1008310611d8d576305f5e1008381611d8357611d82613311565b5b0492506008810190505b6127108310611db2576127108381611da857611da7613311565b5b0492506004810190505b60648310611dd55760648381611dcb57611dca613311565b5b0492506002810190505b600a8310611de4576001810190505b80915050919050565b600073ffffffffffffffffffffffffffffffffffffffff168273ffffffffffffffffffffffffffffffffffffffff1603611e5c576040517f08c379a0000000000000000000000000000000000000000000000000000000008152600401611e539061338c565b60405180910390fd5b611e65816116cc565b15611ea5576040517f08c379a0000000000000000000000000000000000000000000000000000000008152600401611e9c906133f8565b60405180910390fd5b611eb360008383600161170d565b611ebc816116cc565b15611efc576040517f08c379a0000000000000000000000000000000000000000000000000000000008152600401611ef3906133f8565b60405180910390fd5b6001600360008473ffffffffffffffffffffffffffffffffffffffff1673ffffffffffffffffffffffffffffffffffffffff16815260200190815260200160002060008282540192505081905550816002600083815260200190815260200160002060006101000a81548173ffffffffffffffffffffffffffffffffffffffff021916908373ffffffffffffffffffffffffffffffffffffffff160217905550808273ffffffffffffffffffffffffffffffffffffffff16600073ffffffffffffffffffffffffffffffffffffffff167fddf252ad1be2c89b69c2b068fc378daa952ba7f163c4a11628f55a4df523b3ef60405160405180910390a461200660008383600161186d565b5050565b508054612016906127cd565b6000825580601f106120285750612047565b601f016020900490600052602060002090810190612046919061204a565b5b50565b5b8082111561206357600081600090555060010161204b565b5090565b6000604051905090565b600080fd5b600080fd5b60007fffffffff0000000000000000000000000000000000000000000000000000000082169050919050565b6120b08161207b565b81146120bb57600080fd5b50565b6000813590506120cd816120a7565b92915050565b6000602082840312156120e9576120e8612071565b5b60006120f7848285016120be565b91505092915050565b60008115159050919050565b61211581612100565b82525050565b6000602082019050612130600083018461210c565b92915050565b600081519050919050565b600082825260208201905092915050565b60005b83811015612170578082015181840152602081019050612155565b60008484015250505050565b6000601f19601f8301169050919050565b600061219882612136565b6121a28185612141565b93506121b2818560208601612152565b6121bb8161217c565b840191505092915050565b600060208201905081810360008301526121e0818461218d565b905092915050565b6000819050919050565b6121fb816121e8565b811461220657600080fd5b50565b600081359050612218816121f2565b92915050565b60006020828403121561223457612233612071565b5b600061224284828501612209565b91505092915050565b600073ffffffffffffffffffffffffffffffffffffffff82169050919050565b60006122768261224b565b9050919050565b6122868161226b565b82525050565b60006020820190506122a1600083018461227d565b92915050565b6122b08161226b565b81146122bb57600080fd5b50565b6000813590506122cd816122a7565b92915050565b600080604083850312156122ea576122e9612071565b5b60006122f8858286016122be565b925050602061230985828601612209565b9150509250929050565b60008060006060848603121561232c5761232b612071565b5b600061233a868287016122be565b935050602061234b868287016122be565b925050604061235c86828701612209565b9150509250925092565b60006020828403121561237c5761237b612071565b5b600061238a848285016122be565b91505092915050565b61239c816121e8565b82525050565b60006020820190506123b76000830184612393565b92915050565b6123c681612100565b81146123d157600080fd5b50565b6000813590506123e3816123bd565b92915050565b60008060408385031215612400576123ff612071565b5b600061240e858286016122be565b925050602061241f858286016123d4565b9150509250929050565b600080fd5b600080fd5b7f4e487b7100000000000000000000000000000000000000000000000000000000600052604160045260246000fd5b61246b8261217c565b810181811067ffffffffffffffff8211171561248a57612489612433565b5b80604052505050565b600061249d612067565b90506124a98282612462565b919050565b600067ffffffffffffffff8211156124c9576124c8612433565b5b6124d28261217c565b9050602081019050919050565b82818337600083830152505050565b60006125016124fc846124ae565b612493565b90508281526020810184848401111561251d5761251c61242e565b5b6125288482856124df565b509392505050565b600082601f83011261254557612544612429565b5b81356125558482602086016124ee565b91505092915050565b6000806000806080858703121561257857612577612071565b5b6000612586878288016122be565b9450506020612597878288016122be565b93505060406125a887828801612209565b925050606085013567ffffffffffffffff8111156125c9576125c8612076565b5b6125d587828801612530565b91505092959194509250565b600067ffffffffffffffff8211156125fc576125fb612433565b5b6126058261217c565b9050602081019050919050565b6000612625612620846125e1565b612493565b9050828152602081018484840111156126415761264061242e565b5b61264c8482856124df565b509392505050565b600082601f83011261266957612668612429565b5b8135612679848260208601612612565b91505092915050565b60006020828403121561269857612697612071565b5b600082013567ffffffffffffffff8111156126b6576126b5612076565b5b6126c284828501612654565b91505092915050565b600067ffffffffffffffff82169050919050565b6126e8816126cb565b81146126f357600080fd5b50565b600081359050612705816126df565b92915050565b60008060006060848603121561272457612723612071565b5b600061273286828701612209565b9350506020612743868287016122be565b9250506040612754868287016126f6565b9150509250925092565b6000806040838503121561277557612774612071565b5b6000612783858286016122be565b9250506020612794858286016122be565b9150509250929050565b7f4e487b7100000000000000000000000000000000000000000000000000000000600052602260045260246000fd5b600060028204905060018216806127e557607f821691505b6020821081036127f8576127f761279e565b5b50919050565b7f4552433732313a20617070726f76616c20746f2063757272656e74206f776e6560008201527f7200000000000000000000000000000000000000000000000000000000000000602082015250565b600061285a602183612141565b9150612865826127fe565b604082019050919050565b600060208201905081810360008301526128898161284d565b9050919050565b7f4552433732313a20617070726f76652063616c6c6572206973206e6f7420746f60008201527f6b656e206f776e6572206f7220617070726f76656420666f7220616c6c000000602082015250565b60006128ec603d83612141565b91506128f782612890565b604082019050919050565b6000602082019050818103600083015261291b816128df565b9050919050565b7f4552433732313a2063616c6c6572206973206e6f7420746f6b656e206f776e6560008201527f72206f7220617070726f76656400000000000000000000000000000000000000602082015250565b600061297e602d83612141565b915061298982612922565b604082019050919050565b600060208201905081810360008301526129ad81612971565b9050919050565b7f4552433732313a20696e76616c696420746f6b656e2049440000000000000000600082015250565b60006129ea601883612141565b91506129f5826129b4565b602082019050919050565b60006020820190508181036000830152612a19816129dd565b9050919050565b7f4552433732313a2061646472657373207a65726f206973206e6f74206120766160008201527f6c6964206f776e65720000000000000000000000000000000000000000000000602082015250565b6000612a7c602983612141565b9150612a8782612a20565b604082019050919050565b60006020820190508181036000830152612aab81612a6f565b9050919050565b600081905092915050565b6000612ac882612136565b612ad28185612ab2565b9350612ae2818560208601612152565b80840191505092915050565b6000612afa8285612abd565b9150612b068284612abd565b91508190509392505050565b7f4552433732313a207472616e736665722063616c6c6572206973206e6f74206f60008201527f776e6572206e6f7220617070726f766564000000000000000000000000000000602082015250565b6000612b6e603183612141565b9150612b7982612b12565b604082019050919050565b60006020820190508181036000830152612b9d81612b61565b9050919050565b7f457870697265733c63757272656e742074696d65000000000000000000000000600082015250565b6000612bda601483612141565b9150612be582612ba4565b602082019050919050565b60006020820190508181036000830152612c0981612bcd565b9050919050565b7f416c72656164792072656e74656420746f20736f6d656f6e6500000000000000600082015250565b6000612c46601983612141565b9150612c5182612c10565b602082019050919050565b60006020820190508181036000830152612c7581612c39565b9050919050565b612c85816126cb565b82525050565b6000602082019050612ca06000830184612c7c565b92915050565b7f4552433732313a207472616e736665722066726f6d20696e636f72726563742060008201527f6f776e6572000000000000000000000000000000000000000000000000000000602082015250565b6000612d02602583612141565b9150612d0d82612ca6565b604082019050919050565b60006020820190508181036000830152612d3181612cf5565b9050919050565b7f4552433732313a207472616e7366657220746f20746865207a65726f2061646460008201527f7265737300000000000000000000000000000000000000000000000000000000602082015250565b6000612d94602483612141565b9150612d9f82612d38565b604082019050919050565b60006020820190508181036000830152612dc381612d87565b9050919050565b7f4552433732313a20617070726f766520746f2063616c6c657200000000000000600082015250565b6000612e00601983612141565b9150612e0b82612dca565b602082019050919050565b60006020820190508181036000830152612e2f81612df3565b9050919050565b7f4552433732313a207472616e7366657220746f206e6f6e20455243373231526560008201527f63656976657220696d706c656d656e7465720000000000000000000000000000602082015250565b6000612e92603283612141565b9150612e9d82612e36565b604082019050919050565b60006020820190508181036000830152612ec181612e85565b9050919050565b7f45524337323155524953746f726167653a2055524920736574206f66206e6f6e60008201527f6578697374656e7420746f6b656e000000000000000000000000000000000000602082015250565b6000612f24602e83612141565b9150612f2f82612ec8565b604082019050919050565b60006020820190508181036000830152612f5381612f17565b9050919050565b60008190508160005260206000209050919050565b60006020601f8301049050919050565b600082821b905092915050565b600060088302612fbc7fffffffffffffffffffffffffffffffffffffffffffffffffffffffffffffffff82612f7f565b612fc68683612f7f565b95508019841693508086168417925050509392505050565b6000819050919050565b6000613003612ffe612ff9846121e8565b612fde565b6121e8565b9050919050565b6000819050919050565b61301d83612fe8565b6130316130298261300a565b848454612f8c565b825550505050565b600090565b613046613039565b613051818484613014565b505050565b5b818110156130755761306a60008261303e565b600181019050613057565b5050565b601f8211156130ba5761308b81612f5a565b61309484612f6f565b810160208510156130a3578190505b6130b76130af85612f6f565b830182613056565b50505b505050565b600082821c905092915050565b60006130dd600019846008026130bf565b1980831691505092915050565b60006130f683836130cc565b9150826002028217905092915050565b61310f82612136565b67ffffffffffffffff81111561312857613127612433565b5b61313282546127cd565b61313d828285613079565b600060209050601f831160018114613170576000841561315e578287015190505b61316885826130ea565b8655506131d0565b601f19841661317e86612f5a565b60005b828110156131a657848901518255600182019150602085019450602081019050613181565b868310156131c357848901516131bf601f8916826130cc565b8355505b6001600288020188555050505b505050505050565b6000819050919050565b60006131fd6131f86131f3846131d8565b612fde565b6126cb565b9050919050565b61320d816131e2565b82525050565b60006020820190506132286000830184613204565b92915050565b600081519050919050565b600082825260208201905092915050565b60006132558261322e565b61325f8185613239565b935061326f818560208601612152565b6132788161217c565b840191505092915050565b6000608082019050613298600083018761227d565b6132a5602083018661227d565b6132b26040830185612393565b81810360608301526132c4818461324a565b905095945050505050565b6000815190506132de816120a7565b92915050565b6000602082840312156132fa576132f9612071565b5b6000613308848285016132cf565b91505092915050565b7f4e487b7100000000000000000000000000000000000000000000000000000000600052601260045260246000fd5b7f4552433732313a206d696e7420746f20746865207a65726f2061646472657373600082015250565b6000613376602083612141565b915061338182613340565b602082019050919050565b600060208201905081810360008301526133a581613369565b9050919050565b7f4552433732313a20746f6b656e20616c7265616479206d696e74656400000000600082015250565b60006133e2601c83612141565b91506133ed826133ac565b602082019050919050565b60006020820190508181036000830152613411816133d5565b905091905056fea2646970667358221220be4fda1e054170a00eff75aec4bade56a162c6f0015f7113243c70ab25bde88964736f6c63430008130033",
  "immutableReferences": {},
  "source": "// SPDX-License-Identifier: MIT\npragma solidity >=0.4.22 <0.9.0;\n\nimport \"./ERC4907.sol\";\nimport \"@openzeppelin/contracts/utils/Counters.sol\";\n\ncontract RentableNft is ERC4907 {\n  using Counters for Counters.Counter;\n  Counters.Counter private _tokenIds;\n\n  constructor() ERC4907(\"RentableNft\", \"RN\") {}\n\n  function mint(string memory _tokenURI) public {\n    _tokenIds.increment();\n    uint256 newTokenId = _tokenIds.current();\n    _safeMint(msg.sender, newTokenId);\n    _setTokenURI(newTokenId, _tokenURI);\n  }\n\n  function burn(uint256 tokenId) public {\n    _burn(tokenId);\n  }\n}\n",
  "sourcePath": "C:\\Users\\d.betaieb\\Desktop\\rentable-nfts\\contracts\\RentableNft.sol",
  "compiler": {
    "name": "solc",
    "version": "0.8.19+commit.7dd6d404.Emscripten.clang"
  },
  "schemaVersion": "3.4.13",
  "updatedAt": "2023-04-11T11:37:54.909Z",
  "networkType": "ethereum",
  "devdoc": {
    "events": {
      "Approval(address,address,uint256)": {
        "details": "Emitted when `owner` enables `approved` to manage the `tokenId` token."
      },
      "ApprovalForAll(address,address,bool)": {
        "details": "Emitted when `owner` enables or disables (`approved`) `operator` to manage all of its assets."
      },
      "Transfer(address,address,uint256)": {
        "details": "Emitted when `tokenId` token is transferred from `from` to `to`."
      }
    },
    "kind": "dev",
    "methods": {
      "approve(address,uint256)": {
        "details": "See {IERC721-approve}."
      },
      "balanceOf(address)": {
        "details": "See {IERC721-balanceOf}."
      },
      "getApproved(uint256)": {
        "details": "See {IERC721-getApproved}."
      },
      "isApprovedForAll(address,address)": {
        "details": "See {IERC721-isApprovedForAll}."
      },
      "name()": {
        "details": "See {IERC721Metadata-name}."
      },
      "ownerOf(uint256)": {
        "details": "See {IERC721-ownerOf}."
      },
      "safeTransferFrom(address,address,uint256)": {
        "details": "See {IERC721-safeTransferFrom}."
      },
      "safeTransferFrom(address,address,uint256,bytes)": {
        "details": "See {IERC721-safeTransferFrom}."
      },
      "setApprovalForAll(address,bool)": {
        "details": "See {IERC721-setApprovalForAll}."
      },
      "setUser(uint256,address,uint64)": {
        "details": "The zero address indicates there is no user Throws if `tokenId` is not valid NFT",
        "params": {
          "expires": "UNIX timestamp, The new user could use the NFT before expires",
          "user": "The new user of the NFT"
        }
      },
      "supportsInterface(bytes4)": {
        "details": "See {IERC165-supportsInterface}."
      },
      "symbol()": {
        "details": "See {IERC721Metadata-symbol}."
      },
      "tokenURI(uint256)": {
        "details": "See {IERC721Metadata-tokenURI}."
      },
      "transferFrom(address,address,uint256)": {
        "details": "See {IERC721-transferFrom}."
      },
      "userExpires(uint256)": {
        "details": "The zero value indicates that there is no user",
        "params": {
          "tokenId": "The NFT to get the user expires for"
        },
        "returns": {
          "_0": "The user expires for this NFT"
        }
      },
      "userOf(uint256)": {
        "details": "The zero address indicates that there is no user or the user is expired",
        "params": {
          "tokenId": "The NFT to get the user address for"
        },
        "returns": {
          "_0": "The user address for this NFT"
        }
      }
    },
    "version": 1
  },
  "userdoc": {
    "events": {
      "UpdateUser(uint256,address,uint64)": {
        "notice": "Emitted when the `user` of an NFT or the `expires` of the `user` is changed The zero address for user indicates that there is no user address"
      }
    },
    "kind": "user",
    "methods": {
      "setUser(uint256,address,uint64)": {
        "notice": "set the user and expires of a NFT"
      },
      "userExpires(uint256)": {
        "notice": "Get the user expires of an NFT"
      },
      "userOf(uint256)": {
        "notice": "Get the user address of an NFT"
      }
    },
    "version": 1
  }
}